{"abi":[{"type":"function","name":"campaigns","inputs":[{"name":"","type":"uint256","internalType":"uint256"}],"outputs":[{"name":"owner","type":"address","internalType":"address"},{"name":"title","type":"string","internalType":"string"},{"name":"description","type":"string","internalType":"string"},{"name":"target","type":"uint256","internalType":"uint256"},{"name":"deadline","type":"uint256","internalType":"uint256"},{"name":"amountCollected","type":"uint256","internalType":"uint256"}],"stateMutability":"view"},{"type":"function","name":"createCampaign","inputs":[{"name":"_owner","type":"address","internalType":"address"},{"name":"_title","type":"string","internalType":"string"},{"name":"_description","type":"string","internalType":"string"},{"name":"_target","type":"uint256","internalType":"uint256"},{"name":"_deadline","type":"uint256","internalType":"uint256"}],"outputs":[],"stateMutability":"nonpayable"},{"type":"function","name":"donateToCampaign","inputs":[{"name":"_id","type":"uint256","internalType":"uint256"}],"outputs":[],"stateMutability":"payable"},{"type":"function","name":"getAllCampaigns","inputs":[],"outputs":[{"name":"","type":"tuple[]","internalType":"struct Crowdfunding.Campaign[]","components":[{"name":"owner","type":"address","internalType":"address"},{"name":"title","type":"string","internalType":"string"},{"name":"description","type":"string","internalType":"string"},{"name":"target","type":"uint256","internalType":"uint256"},{"name":"deadline","type":"uint256","internalType":"uint256"},{"name":"amountCollected","type":"uint256","internalType":"uint256"},{"name":"donators","type":"address[]","internalType":"address[]"},{"name":"donations","type":"uint256[]","internalType":"uint256[]"}]}],"stateMutability":"view"},{"type":"function","name":"getCampaignDonators","inputs":[{"name":"_id","type":"uint256","internalType":"uint256"}],"outputs":[{"name":"","type":"address[]","internalType":"address[]"},{"name":"","type":"uint256[]","internalType":"uint256[]"}],"stateMutability":"view"},{"type":"function","name":"numberOfCampaigns","inputs":[],"outputs":[{"name":"","type":"uint256","internalType":"uint256"}],"stateMutability":"view"},{"type":"event","name":"CampaignCreated","inputs":[{"name":"id","type":"uint256","indexed":false,"internalType":"uint256"},{"name":"owner","type":"address","indexed":false,"internalType":"address"},{"name":"title","type":"string","indexed":false,"internalType":"string"},{"name":"target","type":"uint256","indexed":false,"internalType":"uint256"},{"name":"deadline","type":"uint256","indexed":false,"internalType":"uint256"}],"anonymous":false},{"type":"event","name":"DonationReceived","inputs":[{"name":"id","type":"uint256","indexed":false,"internalType":"uint256"},{"name":"donator","type":"address","indexed":false,"internalType":"address"},{"name":"amount","type":"uint256","indexed":false,"internalType":"uint256"}],"anonymous":false}],"bytecode":{"object":"0x6080604052600060015534801561001557600080fd5b50610e91806100256000396000f3fe6080604052600436106100555760003560e01c8063075843c31461005a57806307ca140d1461007c578063141961bc146100a557806342a4fda8146100d757806386cdf604146100ea578063e6ea7dcc1461010c575b600080fd5b34801561006657600080fd5b5061007a61007536600461096f565b61013a565b005b34801561008857600080fd5b5061009260015481565b6040519081526020015b60405180910390f35b3480156100b157600080fd5b506100c56100c0366004610a03565b610249565b60405161009c96959493929190610a62565b61007a6100e5366004610a03565b610398565b3480156100f657600080fd5b506100ff6104e9565b60405161009c9190610b2b565b34801561011857600080fd5b5061012c610127366004610a03565b6107fd565b60405161009c929190610c1c565b600154600090815260208190526040902042821161019f5760405162461bcd60e51b815260206004820152601e60248201527f446561646c696e65206d75737420626520696e2074686520667574757265000060448201526064015b60405180910390fd5b80546001600160a01b0319166001600160a01b038716178155600181016101c68682610cff565b50600281016101d58582610cff565b506003810183905560048101829055600060058201556001546040517fdc26653af5b99b2da33e2ad69ee6600d9aeccc82b034501db4338309615ca23891610224913390899088908890610dbf565b60405180910390a16001805490600061023c83610e13565b9190505550505050505050565b600060208190529081526040902080546001820180546001600160a01b03909216929161027590610c7c565b80601f01602080910402602001604051908101604052809291908181526020018280546102a190610c7c565b80156102ee5780601f106102c3576101008083540402835291602001916102ee565b820191906000526020600020905b8154815290600101906020018083116102d157829003601f168201915b50505050509080600201805461030390610c7c565b80601f016020809104026020016040519081016040528092919081815260200182805461032f90610c7c565b801561037c5780601f106103515761010080835404028352916020019161037c565b820191906000526020600020905b81548152906001019060200180831161035f57829003601f168201915b5050505050908060030154908060040154908060050154905086565b60008181526020819052604090203490816103f55760405162461bcd60e51b815260206004820152601f60248201527f446f6e6174696f6e206d7573742062652067726561746572207468616e2030006044820152606401610196565b600681018054600180820183556000928352602080842090920180546001600160a01b03191633179055600784018054918201815583529082200183905581546040516001600160a01b039091169084908381818185875af1925050503d806000811461047e576040519150601f19603f3d011682016040523d82523d6000602084013e610483565b606091505b5050905080156104a35782826005015461049d9190610e2c565b60058301555b604080518581523360208201529081018490527f0b5b4c52969ff7329ecf7ee536409fda87812b15a8622bc6e8cdeab3aee14a269060600160405180910390a150505050565b6060600060015467ffffffffffffffff811115610508576105086108cc565b60405190808252806020026020018201604052801561058a57816020015b61057760405180610100016040528060006001600160a01b03168152602001606081526020016060815260200160008152602001600081526020016000815260200160608152602001606081525090565b8152602001906001900390816105265790505b50905060005b6001548110156107f757600081815260208181526040918290208251610100810190935280546001600160a01b03168352600181018054919392849290840191906105da90610c7c565b80601f016020809104026020016040519081016040528092919081815260200182805461060690610c7c565b80156106535780601f1061062857610100808354040283529160200191610653565b820191906000526020600020905b81548152906001019060200180831161063657829003601f168201915b5050505050815260200160028201805461066c90610c7c565b80601f016020809104026020016040519081016040528092919081815260200182805461069890610c7c565b80156106e55780601f106106ba576101008083540402835291602001916106e5565b820191906000526020600020905b8154815290600101906020018083116106c857829003601f168201915b505050505081526020016003820154815260200160048201548152602001600582015481526020016006820180548060200260200160405190810160405280929190818152602001828054801561076557602002820191906000526020600020905b81546001600160a01b03168152600190910190602001808311610747575b50505050508152602001600782018054806020026020016040519081016040528092919081815260200182805480156107bd57602002820191906000526020600020905b8154815260200190600101908083116107a9575b5050505050815250508383815181106107d8576107d8610e45565b60200260200101819052505080806107ef90610e13565b915050610590565b50919050565b6000818152602081815260409182902060068101805484518185028101850190955280855260609485949293600701929091849183018282801561086a57602002820191906000526020600020905b81546001600160a01b0316815260019091019060200180831161084c575b50505050509150808054806020026020016040519081016040528092919081815260200182805480156108bc57602002820191906000526020600020905b8154815260200190600101908083116108a8575b5050505050905091509150915091565b634e487b7160e01b600052604160045260246000fd5b600082601f8301126108f357600080fd5b813567ffffffffffffffff8082111561090e5761090e6108cc565b604051601f8301601f19908116603f01168101908282118183101715610936576109366108cc565b8160405283815286602085880101111561094f57600080fd5b836020870160208301376000602085830101528094505050505092915050565b600080600080600060a0868803121561098757600080fd5b85356001600160a01b038116811461099e57600080fd5b9450602086013567ffffffffffffffff808211156109bb57600080fd5b6109c789838a016108e2565b955060408801359150808211156109dd57600080fd5b506109ea888289016108e2565b9598949750949560608101359550608001359392505050565b600060208284031215610a1557600080fd5b5035919050565b6000815180845260005b81811015610a4257602081850181015186830182015201610a26565b506000602082860101526020601f19601f83011685010191505092915050565b6001600160a01b038716815260c060208201819052600090610a8690830188610a1c565b8281036040840152610a988188610a1c565b60608401969096525050608081019290925260a0909101529392505050565b600081518084526020808501945080840160005b83811015610af05781516001600160a01b031687529582019590820190600101610acb565b509495945050505050565b600081518084526020808501945080840160005b83811015610af057815187529582019590820190600101610b0f565b60006020808301818452808551808352604092508286019150828160051b87010184880160005b83811015610c0e57888303603f19018552815180516001600160a01b0316845261010088820151818a870152610b8a82870182610a1c565b9150508782015185820389870152610ba28282610a1c565b606084810151908801526080808501519088015260a0808501519088015260c080850151888303828a01529193509150610bdc8382610ab7565b9250505060e08083015192508582038187015250610bfa8183610afb565b968901969450505090860190600101610b52565b509098975050505050505050565b604080825283519082018190526000906020906060840190828701845b82811015610c5e5781516001600160a01b031684529284019290840190600101610c39565b50505083810382850152610c728186610afb565b9695505050505050565b600181811c90821680610c9057607f821691505b6020821081036107f757634e487b7160e01b600052602260045260246000fd5b601f821115610cfa57600081815260208120601f850160051c81016020861015610cd75750805b601f850160051c820191505b81811015610cf657828155600101610ce3565b5050505b505050565b815167ffffffffffffffff811115610d1957610d196108cc565b610d2d81610d278454610c7c565b84610cb0565b602080601f831160018114610d625760008415610d4a5750858301515b600019600386901b1c1916600185901b178555610cf6565b600085815260208120601f198616915b82811015610d9157888601518255948401946001909101908401610d72565b5085821015610daf5787850151600019600388901b60f8161c191681555b5050505050600190811b01905550565b8581526001600160a01b038516602082015260a060408201819052600090610de990830186610a1c565b606083019490945250608001529392505050565b634e487b7160e01b600052601160045260246000fd5b600060018201610e2557610e25610dfd565b5060010190565b80820180821115610e3f57610e3f610dfd565b92915050565b634e487b7160e01b600052603260045260246000fdfea2646970667358221220670444b5f1626483d0deed4b9cd970dd71a9e57e5c92379335acec11390b66ff64736f6c63430008130033","linkReferences":{}},"methodIdentifiers":{"campaigns(uint256)":"141961bc","createCampaign(address,string,string,uint256,uint256)":"075843c3","donateToCampaign(uint256)":"42a4fda8","getAllCampaigns()":"86cdf604","getCampaignDonators(uint256)":"e6ea7dcc","numberOfCampaigns()":"07ca140d"},"id":20}